:020000040800F2
:1000000000280020D9020008B1020008B50200084B
:10001000B9020008BD020008C1020008000000008B
:10002000000000000000000000000000C502000801
:10003000C902000800000000CD020008D10200083B
:100040002103000821030008210300082103000800
:1000500021030008210300082103000821030008F0
:1000600021030008210300082103000821030008E0
:1000700021030008210300082103000821030008D0
:1000800021030008210300082103000821030008C0
:1000900021030008210300082103000821030008B0
:1000A00021030008210300082103000821030008A0
:1000B00021030008210300080000000021030008BC
:1000C00021030008000000000000000021030008D8
:1000D00000000000210300082103000800000000C8
:1000E000210300082103000821030008000000008C
:1000F0000000000000000000000000000000000000
:0C01000000000000000000005FF808F1A3
:10010C0010B5054C237833B9044B13B10448AFF345
:10011C0000800123237010BD0C00002000000000A3
:10012C00A80C000808B5034B1BB103490348AFF3F7
:10013C00008008BD0000000010000020A80C000882
:10014C0010B590B02422002107A800F09FFD0224D6
:10015C0000230121102206A8CDE90133CDE9033398
:10016C00CDE90534CDE90A1200F096FA08B172B661
:10017C00FEE701460F2301A8CDE90211CDE90411D8
:10018C00019300F0BFFC08B172B6FEE710B010BDD1
:10019C00F0B5002487B000F0E3F8FFF7D1FFCDE90C
:1001AC000244CDE904442B4B22469969022741F0C5
:1001BC000401996198694FF6F07100F00400009009
:1001CC0000989D69244845F008059D619B690125AF
:1001DC0003F008030193019B00F05AFA22467F2199
:1001EC001E4800F055FA4FF6F0731B4802A9CDE9F2
:1001FC0002350597049400F04BF97F23174802A9A8
:10020C0002930597CDE9035400F042F922462021D0
:10021C00114800F03DFA2A4640210F482E4600F0C6
:10022C0037FA0D4F4FF47A7000F0BEF822462021B9
:10023C00384600F02DFA2A464021384600F028FABC
:10024C0086F00103DEB2002BECD1E443ED43E4B2C3
:10025C00EDB2E7E70010024000080140000C01403D
:10026C000E4B82B09A690E4942F001029A619A696A
:10027C0002F001020092009ADA6942F08052DA61CF
:10028C00DB6903F080530193019B4B6823F0E0631F
:10029C0043F080634B6002B0704700BF0010024017
:1002AC0000000140FEE700BFFEE700BFFEE700BF15
:1002BC00FEE700BFFEE700BF704700BF704700BFFE
:1002CC00704700BF00F05EB8704700BF0C480D4986
:1002DC000D4A002302E0D458C4500433C4188C4295
:1002EC00F9D30A4A0A4C002301E013600432A242FB
:1002FC00FBD3FFF7E9FF00F0A5FCFFF749FF7047C0
:10030C00000000200C000020EC0C00080C00002069
:10031C002C000020FEE7000038B54FF47A730D4A2C
:10032C00054611780C4AB3FBF1F31268B2FBF3F0FB
:10033C0000F096F808B90F2D01D9012038BD0446FC
:10034C00024629464FF0FF3000F052F8034B20468E
:10035C001D6038BD040000200000002008000020B3
:10036C00074A08B51368032043F01003136000F02C
:10037C002DF80F20FFF7D0FFFFF772FF002008BD0C
:10038C0000200240034A044B11681B780B44136095
:10039C00704700BF2800002004000020014B1868A3
:1003AC00704700BF2800002038B50446FFF7F6FF61
:1003BC00631C054602D0044B1B781C44FFF7EEFF70
:1003CC00401BA042FAD338BD040000204FF6FF01B9
:1003DC00064A0302D06803F4E0630840034343F089
:1003EC00BF6343F40033D360704700BF00ED00E0FF
:1003FC00194B30B4DB68C3F30223C3F10705042D9A
:10040C0003F1040428BF0425062C19D94FF0FF343E
:10041C00033B9C4022EA04024FF0FF34AC4021EA3B
:10042C0004019940002841EA02010CDB090100F1AA
:10043C006040C9B200F5614080F8001330BC7047D1
:10044C0000221346E8E7054B00F00F000901C9B282
:10045C000344197630BC704700ED00E0FCEC00E082
:10046C000138B0F1807F0DD230B4F0250022072185
:10047C00054B064C586084F82350104630BC9A60EB
:10048C00196070470120704710E000E000ED00E0BB
:10049C002DE9F04F0C6885B0002C00F09C800026F4
:1004AC00DFF8DCC13346714FDFF8D881DFF8D8E1D3
:1004BC00009004E0013334FA03F200F08C80012246
:1004CC009A4032EA040002EA0405F3D14C68122C7B
:1004DC0000F28480122C0CD8DFE804F088BCB90A36
:1004EC000B0B0B0B0B0B0B0B0B0B0B0B0BB6B30008
:1004FC000026FF2D00F28180DDF800904FEA830A80
:10050C000F24D9F8002004FA0AFB22EA0B0206FA9F
:10051C000AFA42EA0A02C9F80020D1F8049019F04C
:10052C00805F00F08C80DCF818A023F003024AF006
:10053C00010ACCF818A0DCF818A002F180420AF0ED
:10054C00010ACDF80CA002F5803203F0030ADDF8A5
:10055C000CB04FEA8A0AD2F808B004FA0AF42BEA73
:10056C0004000190009C4248844211D000F5806048
:10057C00844271D03F48009C84420CBF4FF0020B68
:10058C004FF0030B01980BFA0AFA40EA0A000190AB
:10059C00019819F4803F90603A6814BF2A43AA432B
:1005AC003A607A6819F4003F14BF2A43AA437A6070
:1005BC00BA6819F4801F14BF2A43AA43BA6019F40D
:1005CC00001FFA6838D01543FD600C68013334FA0B
:1005DC0003F27FF474AF05B0BDE8F08F444505D04D
:1005EC0013D9744502D02448844282D18C68DCB97A
:1005FC00FF2D4FF004067FF67FAF009A4FEA830A77
:10060C00AAF1200A02F104097AE71C488442EDD0D1
:10061C00DFF878904C45E9D0A9F580194C457FF46A
:10062C0068AF8C68002CE3D00098012C4FF00806C2
:10063C000CBF026142615CE722EA0505FD600C68B3
:10064C0038E7CE680C3654E7CE68043651E7CE68EE
:10065C0008364EE7CE684CE74FF0010B01980BFAC9
:10066C000AFA40EA0A00019092E700BF0004014038
:10067C000008014000100140000032100000121070
:10068C000010024000002210000031100000211068
:10069C0002B9090401617047002800F0C3812DE9FB
:1006AC00F04103680446DD0782B035D5A6494A6897
:1006BC0002F00C02042A00F0EF804A6802F00C02EF
:1006CC00082A00F0E5806368B3F5803F10D0002B5A
:1006DC0000F00D81B3F5A02F00F08F819A4B1A68B2
:1006EC0022F480321A601A6822F480221A6004E024
:1006FC00954A136843F480331360FFF74FFE924E14
:10070C00054605E0FFF74AFE401B642800F2EB802B
:10071C0033689A03F6D523689F0728D58A4A51680F
:10072C0011F00C0F00F08E80516801F00C010829BB
:10073C0000F084802369002B00F025810122834B7B
:10074C00814E1A60FFF72AFE054605E0FFF726FEEC
:10075C00401B022800F2C78033689807F6D533682F
:10076C00626923F0F80343EAC203336023681A0773
:10077C001FD45D0741D5744BDA69D0007DD50025B7
:10078C00734B1A68D10540F19D80E368012B00F092
:10079C000B81002B00F0C580052B6B4B1A6A00F007
:1007AC00398122F001021A621A6A22F004021A62DA
:1007BC00FFE0A369002B50D00122664B624E1A60F9
:1007CC00FFF7ECFD054605E0FFF7E8FD401B0228AE
:1007DC0000F28980736A9B07F6D55F4B5F4A1B68F2
:1007EC00A2FB03235B0A019300BF019B5A1E0192DB
:1007FC00002BF9D123685D07BDD4E069D0B1524D0F
:10080C006A6802F00C02082A00F0E68002284FF019
:10081C000001534A00F008811160FFF7BFFD2C4620
:10082C00054604E0FFF7BAFD401B02285BD823689D
:10083C009B01F7D4002002B0BDE8F0815268D603CA
:10084C003FF578AF404A126895072FD52269012AE7
:10085C002CD0012002B0BDE8F0813E4A3A4E136024
:10086C00FFF79CFD054604E0FFF798FD401B0228AE
:10087C0039D8736A9F07F7D4BCE7DA69012542F0CF
:10088C008052DA61DB6903F080530093009B77E7B9
:10089C004A68D0037FF517AF2B4A126891037FF596
:1008AC003BAF6268002A7FF437AFD2E72649606914
:1008BC000A6822F0F80242EAC0020A601A077FF5C1
:1008CC0058AF76E71A681F4642F480721A60FFF739
:1008DC0065FD06463B68DA053FF557AFFFF75EFD51
:1008EC00801B6428F6D9032002B0BDE8F08103F127
:1008FC00804303F504331A681E4622F480321A60D2
:10090C001A6822F480221A60FFF748FD054604E0BD
:10091C00FFF744FD401B6428E5D833689B03F7D4EC
:10092C00F9E603F1804303F504331A6A1F4622F0FB
:10093C0001021A621A6A41F2883822F004021A6221
:10094C00FFF72CFD064612E0001002400000424268
:10095C00007000408004424200000020D34D621021
:10096C0060004242FFF71AFD801B4045BBD83B6A32
:10097C009807F7D4002D3FF440AF444AD36923F0D5
:10098C008053D36139E7424A404E1360FFF706FDAE
:10099C00054604E0FFF702FD401B0228A3D833688C
:1009AC009907F7D42368E2E6384A136A43F0010347
:1009BC001362FFF7F3FC41F288380646334F04E02C
:1009CC00FFF7ECFC801B40458DD83B6A9B07F7D5A5
:1009DC00002D3FF412AFD0E701283FF42CAF6B6829
:1009EC00226A03F4803191427FF433AF606A03F4DE
:1009FC007013181A18BF01201DE703F18043A3F5EB
:100A0C003C331A6842F480221A601A6842F480322D
:100A1C001A6072E642F004021A621A6A42F001028B
:100A2C001A62C6E7012070471160FFF7B7FC064653
:100A3C0005E0FFF7B3FC801B02283FF654AF2B6890
:100A4C009901F6D4236AB3F5803F05D16A68A16891
:100A5C0022F400320A436A6001200C4D616A6A6814
:100A6C000B4322F474120B4913436B600860FFF7BD
:100A7C0095FC2C46054605E0FFF790FC401B022830
:100A8C003FF631AF23689A01F6D5D3E60010024049
:100A9C00000042426000424240F2012286B0154BF7
:100AAC000DF1180CADF804200FCB0CE90F00124A15
:100ABC00536803F00C01082902D0104806B07047A7
:100ACC00C3F383416144DB0311F8101C0CD553684C
:100ADC000A48C3F3404300FB01F0634413F8143C91
:100AEC00B0FBF3F006B07047054800FB01F006B010
:100AFC00704700BFD00C00080010024000127A00B2
:100B0C0000093D00002800F08C80494A2DE9F04195
:100B1C001368044603F007038B420D460CD213688E
:100B2C0023F007030B431360136803F007038B4296
:100B3C0002D00120BDE8F0812368980714D559072D
:100B4C0004D53C494A6842F4E0624A601A0704D56D
:100B5C0038494A6842F460524A603649A0684A688B
:100B6C0022F0F00202434A60DF0720D56268314B65
:100B7C00012A1B6857D0022A50D09907D9D52D4E7F
:100B8C0041F28838736823F0030313437360FFF753
:100B9C0005FC074604E0FFF701FCC01B404545D8A7
:100BAC007368626803F00C03B3EB820FF3D1204A35
:100BBC00136803F00703AB4209D9136823F007034A
:100BCC002B431360136803F00703AB42B1D12368C6
:100BDC005A0706D51749E0684A6822F4E0620243D6
:100BEC004A601B0707D5134A2169536823F46053E5
:100BFC0043EAC1035360FFF74FFF0E4B0E4A5B688D
:100C0C000E49C3F30313D35C0D4A20FA03F30868AF
:100C1C001360FFF781FB0020BDE8F0819801AED492
:100C2C0087E7012070479E03A9D482E7032081E760
:100C3C000020024000100240C00C000808000020F8
:100C4C000000002070B500260C4D0D4C641BA41048
:100C5C00A64209D100F022F800260A4D0A4C641B6A
:100C6C00A410A64205D170BD55F8043B9847013637
:100C7C00EEE755F8043B98470136F2E7E40C000820
:100C8C00E40C0008E40C0008E80C000803460244DD
:100C9C00934200D1704703F8011BF9E7F8B500BF88
:100CAC00F8BC08BC9E467047F8B500BFF8BC08BC41
:040CBC009E46704799
:100CC00000000000000000000102030406070809FC
:100CD00002030405060708090A0B0C0D0E0F10107D
:040CE0000000000010
:040CE40031010008D2
:040CE8000D010008F2
:0C0CEC000024F4000100000010000000D3
:04000005080002D914
:00000001FF
